:100000000C9404010C942F010C942F010C942F01DB
:100010000C942F010C942F010C942F010C942F01A0
:100020000C942F010C942F010C942F010C942F0190
:100030000C942F010C942F010C942F010C940C069E
:100040000C942F010C942F010C942F010C942F0170
:100050000C942F010C942F010C942F010C949D28CB
:100060000C942F010C94A12B0C942F010C942F01B4
:100070000C942F010C942F010C942F010C942F0140
:100080000C942F010C942F010C942F010C942F0130
:100090000C94E22B0C942F010C942F010C94AC03C4
:1000A0000C942F010C942F010C942F010C942F0110
:1000B0000C942F010C942F010C942F010C942F0100
:1000C0000C942F010C942F010C942F010C94232CD1
:1000D0000C942F010C942F010C94642C0C942F0180
:1000E0000C942F0100002100240027002A002D007D
:1000F0003000330001010000040107010A01000083
:100100002200250028002B002E00310034000201BF
:100110000000050108010B0100002000230026005B
:1001200029002C002F00320000010000030106010D
:10013000090105050505070508080808020202026D
:100140000A0A080804040404010101010101010173
:100150000303030303030303040707070C0C0C0C3E
:100160000C0C0C0C02020202060606060606060627
:100170000B0B0B0B0B0B0B0B0102102020080810B4
:100180002040102040800201020108040201010207
:1001900004081020408080402010080402018004E0
:1001A000020180402010080402010804020101023B
:1001B0000408102040800102040810204080000044
:1001C000090A02080B0C0D070603040100000000D9
:1001D000000000000000000000000000000000001F
:1001E00000000000000000000000100F0E000000E2
:1001F00000000000000000000000000000000000FF
:10020000000000007902F92D11241FBECFEFD1E2CA
:10021000DEBFCDBF18E0A0E0B2E0E8E7F7E600E01F
:100220000BBF02C007900D92AC38B107D9F71BBEC7
:100230001BE0ACE8B8E001C01D92A13DB107E1F7B9
:1002400012E0C8E0D2E004C02297FE010E94B6335B
:10025000C430D107C9F70E947B230C94BA330C94A5
:1002600000000F931F93CF93DF93689F8001699FD6
:10027000100D789F100D1124C8010E944D01EC0152
:10028000009729F060E070E0A8010E944F02CE01C3
:10029000DF91CF911F910F910895CF93DF93BC0110
:1002A0008230910510F462E070E0A091CF0BB09124
:1002B000D00BED01E0E0F0E040E050E021C08881AB
:1002C00099818617970769F48A819B81309719F085
:1002D0009383828304C09093D00B8093CF0BFE0155
:1002E00034C06817790738F44115510519F084179F
:1002F000950708F4AC01FE018A819B819C01E9010C
:100300002097E9F641155105A9F1CA01861B970B03
:10031000049708F4BA01E0E0F0E02AC08D919C91C6
:10032000119784179507F9F46417750781F41296ED
:100330008D919C911397309719F09383828304C019
:100340009093D00B8093CF0BFD0132964CC0CA0125
:10035000861B970BFD01E80FF91F619371930297BC
:100360008D939C9340C0FD01828193819C01D901B2
:100370001097A1F68091CD0B9091CE0B892B41F473
:1003800080915806909159069093CE0B8093CD0B97
:1003900040915A0650915B064115510541F44DB705
:1003A0005EB78091560690915706481B590B2091D5
:1003B000CD0B3091CE0BCA01821B930B861797078A
:1003C00080F0AB014E5F5F4F8417950750F0420FEE
:1003D000531F5093CE0B4093CD0BF9016193719352
:1003E00002C0E0E0F0E0CF01DF91CF910895CF931C
:1003F000DF93009709F450C0EC0122971B821A8208
:10040000A091CF0BB091D00B109709F140E050E0D4
:10041000AC17BD0708F1BB83AA83FE01219131917E
:10042000E20FF31FAE17BF0779F48D919C911197DE
:10043000280F391F2E5F3F4F3983288312968D91E5
:100440009C9113979B838A834115510571F4D09336
:10045000D00BC093CF0B20C012968D919C91139717
:10046000AD01009711F0DC01D3CFFA01D383C28331
:1004700021913191E20FF31FCE17DF0769F48881D4
:100480009981280F391F2E5F3F4FFA013183208356
:100490008A819B8193838283DF91CF910895DC01D0
:1004A00001C06D9341505040E0F7089581E0809382
:1004B00095086093900810929308109294080895FC
:1004C00080918F0890918E08891B089590918E08D5
:1004D00080918F08981710F080E00895E0918C08C3
:1004E000F0918D08E90FF11D80819F5F90938E0838
:1004F00008950895DF93CF930F92CDB7DEB7698348
:10050000809195088823A9F0809194088032B0F4F6
:1005100080919308E0919108F0919208E80FF11D05
:100520006083809193088F5F8093930880939408F1
:1005300005C0CE01019661E00E948F030F90CF911C
:10054000DF910895EF92FF920F931F93CF93DF9364
:100550007C01042F80919508882359F0EB0110E06D
:1005600005C0C70169910E947A021F5F1017C8F386
:1005700004C0CB01642F0E948F03DF91CF911F91A4
:100580000F91FF90EF900895DB010D900020E9F7A7
:100590001197A61BB70B4A2F0E94A20208956091E3
:1005A000910870919208809190084091940821E000
:1005B0000E944A0310929308109294081092950892
:1005C0000895862F60918C0870918D08413208F053
:1005D00040E20E94120310928E0880938F080895C3
:1005E0000E94E102089580E290E061E070E00E94E4
:1005F000310180938C0890938D0810928E08109290
:100600008F0880E290E061E070E00E943101809309
:1006100091089093920810929308109294080E9467
:1006200032050895982F413210F040E031C080919A
:1006300097088823E1F781E0809397088FEF8093F4
:10064000A80810929F0841504093A0084F5F990F4F
:1006500091609093980885EE8093BC0080919708F4
:100660008130E1F380919F08841710F440919F0836
:10067000A0919D08B0919E0820E030E007C0FB01EA
:10068000E20FF31F8D9180832F5F3F4F2417B8F344
:10069000842F08951F93582F122F413210F081E0BC
:1006A0003CC0809197088823E1F782E08093970807
:1006B0008FEF8093A80810929F084093A008A09104
:1006C0009D08B0919E08FB0102C081918D938E2FF1
:1006D000861B8417D0F3852F90E0880F991F809395
:1006E000980885EE8093BC00112321F08091970833
:1006F0008230E1F38091A8088F3F11F480E00DC0B3
:100700008091A808803211F482E007C08091A80887
:10071000803311F084E001C083E01F910895482FD9
:10072000613210F081E0089580919708843011F0D3
:1007300082E008956093A408A091A108B091A20856
:10074000842F9C01F90102C081918D938E2F841B0F
:100750008617D0F380E008951F920F920FB60F9284
:100760000BB60F9211242F933F934F935F936F9388
:100770007F938F939F93AF93BF93EF93FF9380915A
:10078000B90090E0887F90708036910509F4E2C04E
:1007900081369105CCF58832910509F47BC0893208
:1007A0009105B4F48031910509F46FC08131910550
:1007B0003CF4009709F438C1089709F040C165C0BE
:1007C0008831910509F466C0809709F038C17FC06F
:1007D0008034910509F4A3C08134910544F4803339
:1007E000910509F47FC0C89709F029C186C08035FA
:1007F000910509F486C08835910509F495C08834BF
:10080000910509F01CC19EC08839910509F404C105
:1008100089399105ECF48837910509F49BC0893733
:1008200091054CF48836910509F494C08037910500
:1008300009F005C18FC08838910509F4EDC08039F1
:10084000910509F48DC08038910509F0F8C088C081
:10085000803B910509F4B2C0813B91054CF4803A8C
:10086000910509F491C0883A910509F0E8C0A6C045
:10087000803C910509F4D4C0883C910509F4D0C0AE
:10088000883B910509F0DBC0B1C080919808809346
:10089000BB00C0C090919F088091A008981778F481
:1008A00090919F08E0919D08F0919E08E90FF11D3D
:1008B00080818093BB009F5F90939F08ABC085EDC4
:1008C0008093BC008091BC0084FDFCCFB6C080E268
:1008D0008093A80885ED8093BC008091BC0084FDC6
:1008E000FCCFABC080E38093A80885ED8093BC006B
:1008F0008091BC0084FDFCCFA0C088E38093A80851
:100900008FC080919F089091BB00E0919D08F0916D
:100910009E08E80FF11D90838F5F80939F08909150
:100920009F088091A00874C080919F089091BB009F
:10093000E0919D08F0919E08E80FF11D90838F5F74
:1009400080939F0885ED8093BC008091BC0084FD5E
:10095000FCCF73C083E0809397081092A7085AC019
:100960008091A708803208F057C08091A708909125
:10097000BB00E091A508F091A608E80FF11D908357
:100980008F5F8093A70846C08091A708803248F403
:100990008091A708E091A508F091A608E80FF11D45
:1009A00010826091A708E0919B08F0919C088091CB
:1009B000A5089091A60870E0099532C084E0809364
:1009C00097081092A3081092A408E0919908F0915A
:1009D0009A0809958091A408882341F481E08093C6
:1009E000A408E091A108F091A20810829091A308B8
:1009F000E091A108F091A208E90FF11D8081809398
:100A0000BB009F5F9093A3089091A3088091A408D6
:100A1000981710F485EC01C085E88093BC000FC0E6
:100A200085EC8093BC0009C01092A80885ED8093E6
:100A3000BC008091BC0084FDFCCF10929708FF9110
:100A4000EF91BF91AF919F918F917F916F915F9146
:100A50004F913F912F910F900BBE0F900FBE0F90B3
:100A60001F90189510929708589A599AE9EBF0E060
:100A700080818E7F808380818D7F808388E48093D6
:100A8000B80085E48093BC0080E290E061E070E013
:100A90000E94310180939D0890939E0880E290E02F
:100AA00061E070E00E9431018093A1089093A20858
:100AB00080E290E061E070E00E9431018093A5083F
:100AC0009093A60808950F931F938B019C0180912A
:100AD00070008E7F809370008091B0008C7F809337
:100AE000B0008091B100877F8093B1008091B60003
:100AF0008F7D8093B600809170008D7F8093700011
:100B00008091B10084608093B1008091B1008C7FAE
:100B10008093B10086E090E09093B5088093B4088C
:100B2000011511052105310569F481E090E0A0E08F
:100B3000B0E08093A9089093AA08A093AB08B09363
:100B4000AC0808C00093A9081093AA082093AB082A
:100B50003093AC085093AE084093AD081F910F91AD
:100B600008951092AF081092B0081092B108109238
:100B7000B2081092B3088091B4089091B5088093A0
:100B8000B200E0E7F0E08081816080830895E0E7D3
:100B9000F0E080818E7F808308958091AF089091EE
:100BA000B008A091B108B091B2080196A11DB11D85
:100BB0008093AF089093B008A093B108B093B208A7
:100BC0002091AF083091B0084091B1085091B2081F
:100BD0008091A9089091AA08A091AB08B091AC08A7
:100BE000281739074A075B07B0F08091B3088823BC
:100BF00091F481E08093B3081092AF081092B0088E
:100C00001092B1081092B208E091AD08F091AE08D0
:100C100009951092B30808951F920F920FB60F9284
:100C20000BB60F9211242F933F934F935F936F93C3
:100C30007F938F939F93AF93BF93EF93FF93809195
:100C4000B4089091B5088093B2000E94CD05FF9141
:100C5000EF91BF91AF919F918F917F916F915F9134
:100C60004F913F912F910F900BBE0F900FBE0F90A1
:100C70001F901895AF92BF92CF92DF92EF92FF92A2
:100C80000F931F930E94E5286093B6087093B708EE
:100C90008093B8089093B90886E998E061E270E023
:100CA0000E94560286E998E060E072E00E94C40269
:100CB00086E998E00E94CF026AE070E080E090E070
:100CC0000E94F32886E998E061E270E042E050E09B
:100CD0000E94F00286E998E00E946002823000F5EE
:100CE0000E94E5282091B6083091B7084091B808D5
:100CF0005091B908621B730B840B950B683C71050E
:100D00008105910568F4E6CF60507140CB011F91D9
:100D10000F91FF90EF90DF90CF90BF90AF9008952C
:100D200086E998E00E946602F82EEE2486E998E0B3
:100D30000E94660200D000D0E80EF11C0027F7FCEC
:100D40000095102F8FEF90E0A0E0B0E0EDB7FEB778
:100D500081839283A383B483C801B70120E030E08C
:100D600040E050E0EFE0EE2EEEE0FE2E012D112DE2
:100D7000AA24BB2465010E94C5300F900F900F90EC
:100D80000F90603871050CF0BFCFC0CFCF93DF93C9
:100D9000EC010E943A06AC019C012C1B3D0BC901E1
:100DA00081589F4F8F3F910560F0C417D50724F4F9
:100DB0009A012F5F304003C09A0121503F4F2C1BF6
:100DC0003D0BC901DF91CF91089586E998E00E941B
:100DD000F302089588E060E00E946A2A89E060E0FA
:100DE0000E946A2A8AE060E00E946A2A8BE060E042
:100DF0000E946A2A0895CF93DF938130B1F0813049
:100E000018F08230D1F535C086E160E00E946A2A90
:100E100087E160E00E946A2A1092BD081092BC0827
:100E20001092BB081092BA0828C086E10E94152BC8
:100E3000EC018091BA089091BB08892BA9F4C130CC
:100E4000D10591F487E10E94152B2091BC083091C7
:100E5000BD08892B19F42150304002C02F5F3F4F4D
:100E60003093BD082093BC08D093BB08C093BA0848
:100E700004C07093BD086093BC088091BC08909139
:100E8000BD08DF91CF9108950F931F93CF93DF9308
:100E900088E00E94152BEC0189E00E94152B892B1C
:100EA00011F010E001C012E08AE00E94152B892B9E
:100EB00011F000E001C004E08BE00E94152B892BAB
:100EC00011F090E001C098E080E0CD2B09F481E0C2
:100ED000180F100F812F890FDF91CF911F910F9164
:100EE00008950F931F930E94E92382E092E068E047
:100EF00040E021E000E018EF0E94012887E092E046
:100F000060E042E021E00FEF1FEF0E94012884E142
:100F100092E060E043E021E00E94012881E292E05B
:100F200060E044E021E00E94012880E392E060E07C
:100F300045E021E00E9401288EE392E060E046E077
:100F400021E00E9401288AE492E060E047E021E08D
:100F50000E94012887E592E060E048E021E00E94DD
:100F6000012886E692E060E049E021E00E94012845
:100F70008AE792E060E04AE021E00E9401288CE8E4
:100F800092E060E04BE021E00E94012881EA92E0DB
:100F90006EE04FE022E000E018EF0E9401281F9170
:100FA0000F9108958091C208882339F484E060E0AD
:100FB0000E946A2A81E08093C20884E00E94152B77
:100FC0000197D9F362E370E080E090E00E94F3289B
:100FD00084E00E94152B892BD9F362E370E080E056
:100FE00090E00E94F32808950F931F9381E00E94E0
:100FF000522580E00E94292587EA92E060E043E0E4
:1010000020E00FEF1FEF0E94012884E99BE069E6D2
:101010000E94082F62E370E080E090E00E94F328D5
:1010200084E99BE00E949E2D882351F488EB92E096
:1010300064E143E020E000E018EF0E9401280FC0C7
:101040008FEB92E064E143E020E000EE17E00E94C5
:10105000012884E99BE00E94B22D8A30D1F762E337
:1010600070E080E090E00E94F32884EC92E060E081
:1010700044E020E00FEF1FEF0E94012884E99BE08D
:1010800067E50E94082F62E370E080E090E00E9434
:10109000F32884E99BE00E949E2D882351F488EB7D
:1010A00092E064E144E020E000E018EF0E940128B3
:1010B0000FC08FEB92E064E144E020E000EE17E027
:1010C0000E94012884E99BE00E94B22D8A30D1F76A
:1010D00062E370E080E090E00E94F32882ED92E00D
:1010E00060E045E020E00FEF1FEF0E94012881E85B
:1010F0009BE069E60E94082F62E370E080E090E0E8
:101100000E94F32881E89BE00E949E2D882351F4E1
:1011100088EB92E064E145E020E000E018EF0E94F7
:1011200001280FC08FEB92E064E145E020E000EE83
:1011300017E00E94012881E89BE00E94B22D8A30CE
:10114000D1F764EF71E080E090E00E94F3280E9404
:10115000E92387E20E94152B8C0186E20E94152B61
:10116000080F191F012B19F481EE92E002C080EFE5
:1011700092E063E042E022E006E518EF0E940128D9
:101180008FEF92E062E044E022E000E018EF0E947E
:10119000012880E193E066E046E022E00E94012819
:1011A00089E193E062E049E022E00FE110E00E9473
:1011B000012860E273E080E090E00E94F3280E9442
:1011C000E9231F910F910895DF92EF92FF920F9301
:1011D0001F93CF93DF93D82E7B01613471051CF0F0
:1011E00080E4E82EF12C00E010E0C0E0D0E007C081
:1011F0008D2D0E947E29C80FD91F0F5F1F4F0E151E
:101200001F05B4F3CE01B7010E945033CB01DF912B
:10121000CF911F910F91FF90EF90DF9008951F9352
:10122000182F8CE161E00E946A2A8DE161E00E9442
:101230006A2A8EE161E00E946A2A8FE161E00E94E1
:101240006A2A113079F48CE161E00E948A2A8DE1EA
:1012500061E00E948A2A8EE161E00E948A2A8FE181
:1012600061E00EC08CE160E00E948A2A8DE160E0BE
:101270000E948A2A8EE160E00E948A2A8FE160E063
:101280000E948A2A1F9108958091C308882339F407
:1012900083E261E00E946A2A81E08093C30883E2CE
:1012A00061E00E948A2A65E070E080E090E00E94A0
:1012B000F32883E260E00E948A2A08958091C4089E
:1012C000882339F482E261E00E946A2A81E08093F7
:1012D000C40882E261E00E948A2A62E370E080E052
:1012E00090E00E94F32882E260E00E948A2A62E392
:1012F00070E080E090E00E94F32882E261E00E94CA
:101300008A2A62E370E080E090E00E94F32882E2A3
:1013100060E00E948A2A08958091C508882339F4E4
:1013200082E261E00E946A2A81E08093C50882E23D
:1013300061E00E948A2A62E370E080E090E00E940F
:10134000F32882E260E00E948A2A0895882369F5E2
:1013500080915C06882369F00E94E5286093BE08AE
:101360007093BF088093C0089093C10810925C06E8
:1013700013C00E94E5282091BE083091BF0840911B
:10138000C0085091C108621B730B840B950B615B05
:1013900074408040904010F481E008950E948C09D0
:1013A00081E080935C0680E0089581E080935C0694
:1013B000089584E00E94152B0197D9F362E370E051
:1013C00080E090E00E94F32807C084E00E94152B83
:1013D0000E94A609882379F084E00E94152B892BAE
:1013E000A1F362E370E080E090E00E94F32881E0E6
:1013F0000E94A60981E008958091D4088823F9F419
:101400008091DF08873030F4843068F4813008F44C
:101410003FC003C08A30E0F50CC0E0912607F0E041
:10142000E95DF84F25C0E0912607F0E0E95AF84F52
:101430001FC0E0912607F0E0E957F84F19C082304D
:1014400039F58091DF08873028F4843060F48130EA
:10145000F8F003C08A30E0F411C0E0912607F0E014
:10146000E954F84F05C0E0912607F0E0E951F84F44
:10147000808180931D0710921E070895E091260732
:10148000F0E0E95EF74F808180931D0710921E0700
:1014900008952091050930910609213131051CF08C
:1014A000C901409704C080E190E0821B930B4091FA
:1014B00026070397F4F1E42FF0E0EE0FFF1FE15B46
:1014C000F74F0190F081E02DF0932107E093200782
:1014D000213131055CF11E161F062CF54C3098F4B5
:1014E0008091030990910409823491051CF088E2EF
:1014F00090E05BC088E190E090931E0780931D0709
:101500008AE090E04BC080910109909102098234F9
:101510009105F4F1233331051CF080E290E045C0E1
:101520008AE190E042C084E290E03FC08CE090E02D
:101530003CC0E42FF0E0EE0FFF1FE55AF74F01909B
:10154000F081E02D1E161F0674F5F0932107E0933D
:1015500020074C3098F4809103099091040982345B
:1015600091052CF010921E0710921D07089588E136
:1015700090E090931E0780931D070EC08091010993
:1015800090910209823491051CF088E190E00DC031
:1015900010921E0710921D0782E390E0909321079E
:1015A0008093200708958FEF90E090931E0780931B
:1015B0001D0708950F931F93182F062F0E94E528EB
:1015C0006093590970935A0980935B0990935C0961
:1015D000113021F1113030F01230D9F1133009F00F
:1015E0006BC051C081E89BE00E949E2D801708F0DF
:1015F00063C00E94E5282091590930915A09409111
:101600005B0950915C09621B730B840B950B683C62
:1016100071058105910508F04FC0E4CF84E99BE096
:101620000E949E2D801708F047C00E94E528209157
:10163000590930915A0940915B0950915C09621B2C
:10164000730B840B950B683C710581059105A0F522
:10165000E5CF87EA9BE00E949E2D801768F50E94E7
:10166000E5282091590930915A0940915B09509120
:101670005C09621B730B840B950B683C710581053B
:101680009105D0F4E6CF8AEB9BE00E949E2D801757
:1016900098F40E94E5282091590930915A09409107
:1016A0005B0950915C09621B730B840B950B683CC2
:1016B00071058105910538F30E94E528E0E020914D
:1016C000590930915A0940915B0950915C09621B9C
:1016D000730B840B950B683C71058105910508F42B
:1016E000E1E08E2F1F910F91089580914708882384
:1016F00061F00E94E52860933A0970933B0980935A
:101700003C0990933D09109247080E94E5282091DA
:101710003A0930913B0940913C0950913D09621BC7
:10172000730B840B950B615273408040904020F006
:1017300010920E0910920D0980910D0990910E09D9
:10174000892B09F18AEB9BE00E949E2D8823D9F01A
:101750008AEB9BE00E94B22D80933909833419F003
:10176000843439F404C081E080930F0902C01092E0
:101770000F090E94E52860933A0970933B09809312
:101780003C0990933D090895CF93DF9380915F09C1
:1017900090916009C0915D09D0915E0988309105F2
:1017A0007CF401969093600980935F0985E00E9424
:1017B0007E29C80FD91FD0935E09C0935D0911C05F
:1017C00023E0D595C7952A95E1F7D093CA08C09331
:1017D000C90810925E0910925D091092600910927A
:1017E0005F09DF91CF91089583E00E947E29909355
:1017F000200980931F0984E00E947E29909322098A
:101800008093210987E00E947E2990932409809388
:10181000230986E00E947E299C01909326098093EB
:10182000250980911F09909120098558934064F003
:101830008091190990911A09892B31F481E090E087
:1018400090931A0980931909809121099091220996
:101850008558934064F08091170990911809892B5D
:1018600031F481E090E090931809809317098091FA
:101870002309909124098558934064F080911B09B5
:1018800090911C09892B31F481E090E090931C0920
:1018900080931B092558334064F080911D09909175
:1018A0001E09892B31F481E090E090931E0980930A
:1018B0001D0908950F931F9311E01093100904E080
:1018C000009359081093110982E0809358081093EF
:1018D0001209809357080E94F40B10931409009387
:1018E000560810931309009355081F910F910895FE
:1018F00081E89BE060E50E94082F80E061E00E94A3
:10190000DA0A882331F081E89BE00E94B22D8093AF
:10191000C608089580915208882361F00E94E52846
:10192000609351097093520980935309909354091D
:101930001092520880910D0990910E09892B09F49B
:101940004FC08091C9089091CA088F3191050CF45D
:1019500043C081E08093500902C0109250099091D9
:10196000500980915308891731F081E080934F0925
:101970009093530802C010924F0980914F09882319
:1019800099F40E94E5282091510930915209409123
:10199000530950915409621B730B840B950B6B3FD9
:1019A000710581059105E0F080915009882321F0AF
:1019B0008AEB9BE063E403C08AEB9BE064E40E9453
:1019C000082F0E94E5286093510970935209809373
:1019D00053099093540908954E9709F0BECFBFCF95
:1019E0000895CF93DF9380915408882389F0109253
:1019F00061091092620910926309109264091092B1
:101A0000540806C084E99BE00E94B22D80933809F7
:101A100084E99BE00E949E2D8823A1F784E99BE046
:101A200064E60E94082F81E063E00E94DA0A8823BE
:101A3000D1F184E99BE00E94B22D8093260784E9CE
:101A40009BE00E94B22D8093DF0880916509C82F2A
:101A5000D0E084E99BE00E94B22DCF59D64F888315
:101A6000809165098F5F80936509843010F0109232
:101A700065098091610990916209890F90916309CC
:101A8000890F90916409890F19F41092DD0803C041
:101A900081E08093DD088091260780538F3C18F405
:101AA0008FEF80932607DF91CF910895809167098A
:101AB0008823A9F580913509882339F416C084E973
:101AC0009BE00E94B22D8093380984E99BE00E943C
:101AD0009E2D8823A1F784E99BE063E40FC084E98D
:101AE0009BE00E94B22D8093380984E99BE00E941C
:101AF0009E2D8823A1F784E99BE061E50E94082FD1
:101B000081E061E00E94DA0A882349F084E99BE0E1
:101B10000E94B22D8093660981E0809367098091CD
:101B20003509882339F447C084E99BE00E94B22D2F
:101B30008093380984E99BE00E949E2D8823A1F7B9
:101B400084E99BE061E40E94082F81E064E00E9448
:101B5000DA0A882309F464C084E99BE00E94B22D6C
:101B600080936609809303091092040984E99BE03D
:101B70000E94B22D80936609809305091092060990
:101B800084E99BE00E94B22D80936609809301094D
:101B90001092020984E99BE00E94B22D80936609AD
:101BA0008093070910920809089584E99BE00E9438
:101BB000B22D8093380984E99BE00E949E2D8823F2
:101BC000A1F784E99BE061E40E94082F81E063E0D3
:101BD0000E94DA0A882321F184E99BE00E94B22D59
:101BE00080936609882321F08093030910920409E9
:101BF00084E99BE00E94B22D80936609882321F03E
:101C0000809305091092060984E99BE00E94B22D99
:101C100080936609882321F08093010910920209BC
:101C20000895EF92FF920F931F93E82E81E89BE0B7
:101C300066E50E94082FFF2400E010E081E89BE0A9
:101C4000B801A70120E030E00E94253080E061E08B
:101C50000E94DA0A882331F081E89BE00E94B22DCD
:101C60008093C6081F910F91FF90EF9008951F93E6
:101C7000182F282F30E080914E0890914F08281798
:101C80003907F9F030934F0820934E0881E89BE024
:101C900066E70E94082F412F50E060E070E081E885
:101CA0009BE020E030E00E94253080E061E00E946F
:101CB000DA0A882331F081E89BE00E94B22D8093FC
:101CC000C6081F910895EF92FF920F931F938536D8
:101CD00014F084E603C08C390CF48CE934E6E32E6E
:101CE000E80E81E89BE060E70E94082FFF24E7FCF4
:101CF000F0940F2D1F2D81E89BE0B801A70120E093
:101D000030E00E94253080E061E00E94DA0A8823FA
:101D100031F081E89BE00E94B22D8093C6081F91AC
:101D20000F91FF90EF900895EF92FF920F931F9302
:101D3000E82E81E89BE067E40E94082FFF24E7FC7F
:101D4000F0940F2D1F2D81E89BE0B801A70120E042
:101D500030E00E94253080E061E00E94DA0A8823AA
:101D600031F081E89BE00E94B22D8093C6081F915C
:101D70000F91FF90EF9008951F93182F282F30E0B8
:101D800080915008909151082817390739F1309304
:101D9000510820935008103380F481E89BE06DE4F3
:101DA0000E94082F412F50E060E070E081E89BE046
:101DB00020E030E00E94253005C081E89BE060E52E
:101DC0000E94082F80E061E00E94DA0A882331F047
:101DD00081E89BE00E94B22D8093C6081F91089570
:101DE000882349F08091260787508B3020F483E0C8
:101DF0006FEF70E003C083E060E070E00E94AE2906
:101E000008950F931F938BE293E061E040E022E09E
:101E10000FEF1FEF0E9401288CE393E065E044E0A0
:101E200021E00E9401288FE393E065E046E021E095
:101E30000E9401280E94560D80910109909102098B
:101E400066E043E521E030E00E94D8248091050956
:101E50009091060962E34AE521E030E00E94D8242F
:101E6000809107099091080962E346E421E030E09F
:101E70000E94D824809103099091040965E643E506
:101E800021E030E00E94D8248091150990E062E3BF
:101E90004EE121E030E00E94D8248091160990E0C4
:101EA00062E342E321E030E00E94D82462E370E084
:101EB00080E090E00E94F328BDCFCF93DF93EC0148
:101EC000809148088130F1F41092480884E690E04F
:101ED0002091200730912107821B930B880F991FB7
:101EE0009C0143E0220F331F4A95E1F7820F931FB5
:101EF00064E670E00E946433CB0107969093430937
:101F0000809342090E94E5282091FD083091FE0847
:101F10004091FF08509100096217730784079507E5
:101F200009F448C08091F9089091FA0897FF03C01E
:101F3000909581959F4F039774F18DE160E00E9429
:101F40008A2A8091F9089091FA08909581959F4F7F
:101F50002091420930914309AC01429FC001439F47
:101F6000900D529F900D11246AE070E00E9464333E
:101F7000CB016536710514F084E690E05FEF8C3993
:101F8000950714F48CE99FEF9093DA088093D908B1
:101F9000109244090FC08DE161E00E948A2A81E01D
:101FA00080934409CD2B31F08FEF90E090931E0782
:101FB00080931D0780914409DF91CF91089580910E
:101FC0004D08882361F010924D080E94E528609327
:101FD0004B0970934C0980934D0990934E090E94D0
:101FE000E52820914B0930914C0940914D095091C1
:101FF0004E09621B730B840B950B69557240804030
:10200000904010F10E94E52860934B0970934C09B1
:1020100080934D0990934E0980E360E00E948A2AE4
:1020200061E070E080E090E00E94F32880E361E0EE
:102030000E948A2A0E94E5286093FD087093FE089A
:102040008093FF08909300090895FF920F931F93C8
:1020500082E493E062E040E022E00FEF1FEF0E9495
:10206000012882E593E062E043E022E00E9401283B
:1020700083E693E060E049E022E00E94012880E0EE
:1020800063E541E423E030E000EE1FEF0E942726E5
:102090008091C6086AE04AE521E00E94D72610E058
:1020A000FF2484E00E94152B892B39F40E94D2076B
:1020B0000E948C090E94DF0F24C084E99BE00E94EB
:1020C000DA2D84E99BE062E60E94082F84E99BE018
:1020D0000E949E2D8823D1F384E99BE00E94B22DBB
:1020E0008093DD08811769F0813009F080E063E5B5
:1020F00041E423E030E000EE1FEF0E94272610911C
:10210000DD0884E99BE00E94DA2D84E99BE060E72A
:102110000E94082F84E99BE00E949E2D8823D1F322
:1021200084E99BE00E94B22D8093C60884E99BE07D
:102130000E949E2D8823D1F384E99BE00E94B22D5A
:10214000853608F084E68093C608F81609F4A9CF0E
:102150006AE04AE521E00E94D726F090C608A1CFA8
:102160000F931F93882321F081E080934C0873C064
:1021700080914C08882391F10E94E92388E793E03D
:1021800062E040E022E00FEF1FEF0E94012888E8A4
:1021900093E06EE04FE022E000E018EF0E9401289B
:1021A0008EE893E062E040E120E00FEF1FEF0E9435
:1021B000012880E06AE04CE220E00E94D72683E913
:1021C00093E062E044E020E00E94012880E06AE0C1
:1021D0004DE420E00E94D72610924C0884E99BE051
:1021E00060E70E94082F81E061E00E94DA0A8823FC
:1021F00049F084E99BE00E94B22D853608F084E620
:102200008093C6088091C6086AE04CE221E00E94F3
:10221000D72681E061E00E94DA0A882349F084E948
:102220009BE00E94B22D853608F084E68093C608B4
:102230008091C6086AE04DE421E00E94D726809193
:1022400026078F3F11F40E948C0962E370E080E062
:1022500090E00E94F3281F910F910895EF920F9341
:102260001F938AE993E060E041E022E00FEF1FEF67
:102270000E94012853C081E090E060E170E00E947C
:10228000E408AA2797FDA095BA2FBC01CD010E94B2
:10229000123220E030E04CE652E40E94C23220E0EC
:1022A00030E048EC51E40E9477310E94E4319B0118
:1022B000AC018EEA93E0B9014EE12DE200EE17E0A9
:1022C000EE240E94562780E090E060E170E00E94DA
:1022D000E408AA2797FDA095BA2FBC01CD010E9462
:1022E000123220E030E04CE652E40E94C23220E09C
:1022F00030E048EC51E40E9477310E94E4319B01C8
:10230000AC0182EB93E0B90140E52DE20E94562733
:1023100068EC70E080E090E00E94F32884E00E9486
:10232000152B0E94A609882309F0A5CF0E94D20789
:102330001F910F91EF900895DF92EF92FF920F930C
:102340001F93882321F081E080934A0847C1809140
:102350004A08882309F4CEC00E94E92388E793E065
:1023600062E040E022E00FEF1FEF0E94012887EBC0
:1023700093E060E042E020E00E9401288FEB93E0D0
:102380006CE042E020E00E9401281092CC081092FC
:10239000CB0898E4F92E1CC0EE0FFF1FDF01A35AF3
:1023A000B94F6C91605BE354F94F80814F2D481B0E
:1023B00080E023E030E000E018EF0E9427268091C3
:1023C000CB089091CC0801969093CC088093CB08D1
:1023D000E091CB08F091CC08E033F105ECF24091AC
:1023E0005D068091BD069091BE0608E4D02E6D2D4D
:1023F000681B18E4E12EF12C9701281B390B842F60
:102400008D5B435B00E018EF0E947B258091D50631
:102410009091D60640917506405B65E5681B2BE4FC
:1024200030E0281B390B842F0E947B2540918D06BC
:102430008091ED069091EE06D81AE81AF90A842FD9
:10244000835A6D2D4D5A97010E947B258091050777
:10245000909106074091A506405B6BE3681B25E45D
:1024600030E0281B390B842F0E947B2560915D068C
:10247000615CB5E4FB2E8091BD064F2D481B8AECB4
:1024800093E020E00FEF1FEF0E944A246091750651
:10249000665B47E58091D506481B8CEC93E020E015
:1024A0000E944A2460918D06615A8091ED06F81AC7
:1024B0008FEC93E04F2D20E00E944A246091A50606
:1024C000645B46E380910507481B82ED93E020E0C2
:1024D0000E944A2488E893E06EE04FE022E000E0AA
:1024E00018EF0E9401288FEF809326078093DE0863
:1024F00010924A080E94F10C80912607E091DE08B4
:102500008E1709F465C08F3F39F1EF3FA1F0F0E07D
:10251000EE0FFF1FDF01A35AB94F6C91605BE354CC
:10252000F94F48E48081481B80E023E030E000E080
:1025300018EF0E942726E0912607F0E0EE0FFF1F1C
:10254000DF01A35AB94F6C91605BE354F94F48E443
:102550008081481B81E00EC0F0E0EE0FFF1FDF011D
:10256000A35AB94F6C91605BE354F94F48E4808102
:10257000481B80E023E030E000E018EF0E942726AF
:10258000809126078F3F51F090E064E140E121E027
:1025900030E00E94D8248CE161E00BC085ED93E02F
:1025A00060E042E020E00FEF1FEF0E9401288CE185
:1025B00060E00E948A2A87EB93E060E042E020E03E
:1025C0000FEF1FEF0E940128809126078093DE08FD
:1025D00062E370E080E090E00E94F3281F910F9189
:1025E000FF90EF90DF900895AF92BF92CF92DF926D
:1025F000EF92FF920F931F93DF93CF930F92CDB77C
:10260000DEB7882321F081E080934908AAC1809138
:102610004908882309F4E8C082EE93E061E040E0D5
:1026200022E00FEF1FEF0E94012888E893E06EE0A0
:102630004FE022E000E018EF0E9401280E944407CA
:1026400080931F0780912407909125076EE145E74D
:1026500021E030E00E94D82484EF93E060E045E779
:1026600021E00FEF1FEF0E944A2480E06AE04CE671
:1026700020E00E94D7268FEF9FEF90932107809351
:1026800020078FEF80931F071092CC081092CB0881
:102690005AE3F52E1CC0EE0FFF1FDF01A35AB94FFE
:1026A0006C91605BE354F94F80814F2D481B80E0B3
:1026B00022E030E00FE110E00E9427268091CB0855
:1026C0009091CC0801969093CC088093CB08E09130
:1026D000CB08F091CC08E033F105ECF240915D06B7
:1026E0008091BD069091BE063AE3D32E6D2D681BF6
:1026F0002AE3E22EF12C9701281B390B842F8A5BE9
:10270000435B0FE110E00E947B258091D5069091FC
:10271000D60640917506405B64E4681B2DE330E00B
:10272000281B390B842F0E947B2540918D068091B8
:10273000ED069091EE06D81AE81AF90A842F865A07
:102740006D2D4D5A97010E947B2580910507909130
:1027500006074091A506405B60E3681B27E330E075
:10276000281B390B842F0E947B2560915D066F5BCF
:1027700087E3F82E8091BD064F2D481B8AEC93E02D
:1027800020E00E944A2460917506655B45E48091D3
:10279000D506481B8CEC93E020E00E944A2460910F
:1027A0008D06665A8091ED06F81A8FEC93E04F2D56
:1027B00020E00E944A246091A506655B4BE280916F
:1027C0000507481B82ED93E020E00E944A2480E048
:1027D00060E070E00E94FB068FEF9FEF9093D608B9
:1027E0008093D5081092490881E060E070E00E9473
:1027F000FB06909325078093240797FF09C082E08A
:102800006FE270E00E94FB061092250710922407E9
:102810008091240790912507C0974CF080E060E0FC
:1028200070E00E94FB061092250710922407209169
:102830002407309125078091D5089091D608281754
:10284000390709F447C0C9016EE145E721E030E0EE
:102850000E94D82484EF93E060E045E721E00FEF89
:102860001FEF0E944A24E091D508F091D608EE0FA0
:10287000FF1FDF01A35AB94F6C91605BE354F94F1E
:102880009AE38081492F481B80E022E030E00FE18D
:1028900010E099830E942726E0912407F0912507F4
:1028A000EE0FFF1FDF01A35AB94F6C91605BE35439
:1028B000F94F80819981981B81E0492F22E030E017
:1028C0000E94272680912407909125079093D6088F
:1028D0008093D50882E090E068E070E00E94E40810
:1028E00000D000D0AA2797FDA095BA2F24E630E0AB
:1028F00040E050E0EDB7FEB7218332834383548339
:10290000BC01CD0120E030E040E050E0FFEFEF2ED1
:10291000F3E0FF2E012D112DE1E0AE2EB12CC12CE4
:10292000D12C0E94C5309B0170932307609322072E
:102930000F900F900F900F9080912007909121079A
:102940002817390771F0822F6AE04CE621E00E94D7
:10295000D726809122079091230790932107809397
:1029600020070F90CF91DF911F910F91FF90EF9073
:10297000DF90CF90BF90AF9008951F9310922507DE
:102980001092240790E011E0992319F09130E1F7BB
:102990000FC080E00E94F41284E00E94152B892B66
:1029A000C1F781E00E94F4120E94D90991E062C04F
:1029B000112309F441C00E94E92381E89BE066E508
:1029C0000E94082F4091200750912107662757FD4C
:1029D0006095762F81E89BE020E030E00E94253072
:1029E00080E061E00E94DA0A882331F081E89BE010
:1029F0000E94B22D8093C60881E89BE06DE40E949E
:102A0000082F4091240750912507662757FD6095B0
:102A1000762F81E89BE020E030E00E94253080E0C6
:102A200061E00E94DA0A882331F081E89BE00E948D
:102A3000B22D8093C60810E084E00E94152B892BEC
:102A400009F0B6CF0E948C0981E89BE060E50E9406
:102A5000082F80E061E00E94DA0A882309F4A8CFF9
:102A600081E89BE00E94B22D8093C6080E94D9099C
:102A700090E011E0882309F087CF0E94D2071F91D0
:102A800008950F931F93882321F081E080934B08D2
:102A9000EBC080914B088823D9F00E94E92387EB93
:102AA00093E060E040E020E00FEF1FEF0E9401287C
:102AB0008FEB93E06CE040E020E00E9401288FEF74
:102AC000809326078093DE088093E00810924B08DD
:102AD00084E99BE061E60E94082F1092CC081092D6
:102AE000CB081BC081E061E00E94DA0A882361F014
:102AF0000091CB081091CC0884E99BE00E94B22D94
:102B00000F51174FF80180838091CB089091CC082A
:102B100001969093CC088093CB088091CB0890913C
:102B2000CC084897FCF21092CC081092CB0817C042
:102B3000BF01660F771F6E0F7F1F660F771F6B5FDA
:102B4000EF51F74F80814AE70E94AF268091CB0872
:102B50009091CC0801969093CC088093CB08E0919B
:102B6000CB08F091CC08E831F10514F30E94F10C88
:102B7000309126072091DE08321739F49091DF0852
:102B80008091E008981709F46FC03F3FE9F02F3FAC
:102B900069F063E0269FB00111246B5F81E04CE097
:102BA00023E030E000E010E00E9427266091260735
:102BB00083E0689FB00111246B5F81E04CE023E06B
:102BC00030E000E018EF0BC063E0269FB001112455
:102BD0006B5F81E04CE023E030E000E010E00E9419
:102BE0002726809126078F3F99F090E064E140E02E
:102BF00021E030E00E94D8248091DF0890E069E66F
:102C000040E021E030E00E94D8248CE161E012C075
:102C100089EF93E06EE040E020E00FEF1FEF0E94AD
:102C2000012889EF93E06EE140E020E00E94012856
:102C30008CE160E00E948A2A87EB93E060E040E04C
:102C400020E00FEF1FEF0E9401288FEB93E06CE074
:102C500040E020E00E940128809126078093DE0852
:102C60008091DF088093E0081F910F91089503C0C1
:102C700080E00E94B01084E00E94152B892BC1F7E0
:102C800081E00E94B0100E94D20790E0992319F0D1
:102C90009130E1F70FC080E00E94411584E00E946E
:102CA000152B892BC1F781E00E9441150E94D9099B
:102CB00091E00EC080E00E949C1184E00E94152BE0
:102CC000892BC1F781E00E949C110E94D90990E0F4
:102CD0008823E1F60E94D207089580911209882383
:102CE00041F0109212090E94C7050E94F10C0E9447
:102CF000B10580911109882341F0109211090E94B9
:102D0000C7050E94560D0E94B105809110098823C5
:102D100081F0109210090E94C7058091FB089091E4
:102D2000FC080E94C6069093FA088093F9080E9456
:102D3000B10580911409882341F0109214090E9472
:102D4000C7050E94C40B0E94B10508950F931F93FD
:102D50008FEF93E063E041E022E00FEF1FEF0E946E
:102D600001288DE094E062E043E022E000E018EF0B
:102D70000E94012883E06FEB70E00E94AE2910E012
:102D80000E946D162091C9083091CA08812F90E0E9
:102D900082179307C1F0122F822F90E062E249E67A
:102DA00021E030E00E94D824153118F08CE161E078
:102DB00002C08CE160E00E948A2A64E670E080E054
:102DC00090E00E94F3286AE070E080E090E00E94CA
:102DD000F328D6CF6F927F928F929F92AF92BF923D
:102DE000CF92DF92EF92FF920F931F938DE194E0C9
:102DF00063E040E022E00FEF1FEF0E94012888E827
:102E000093E06EE04FE022E000E018EF0E9401281E
:102E1000A4E66A2E712C812C912C52C00E946D1652
:102E20008091F9089091FA0862E342E321E030E0F2
:102E30000E94D82482E00E947E2900D000D0AA27D8
:102E400097FDA095BA2FEDB7FEB76182728283829B
:102E50009482BC01CD0120E030E040E050E0FFEF83
:102E6000EF2EF3E0FF2E012D112DE1E0AE2EB12C5F
:102E7000C12CD12C0E94C5309B0170932307609315
:102E800022070F900F900F900F9080912007909144
:102E900021072817390771F0822F6AE04CE621E0FC
:102EA0000E94D726809122079091230790932107B3
:102EB0008093200762E370E080E090E00E94F328B6
:102EC00084E00E94152B019709F4A8CF0E94D20735
:102ED0000E94E92381E89BE066E50E94082F40916B
:102EE000200750912107662757FD6095762F81E8CE
:102EF0009BE020E030E00E94253081E89BE00E94CA
:102F00009E2D8823D1F381E89BE00E94B22D80930F
:102F1000C60881E090E00E945D0F8091FB089091CF
:102F2000FC080E94C6069093FA088093F9088091E5
:102F3000D9080E94940E80911D070E94BC0EE9CF13
:102F400080911309882309F448C0109213098FE176
:102F500061E00E948A2A80911D0790911E0790933C
:102F6000D2088093D1080E94C70580911D070E9456
:102F7000BC0E0E94B1058FE160E00E948A2A209178
:102F80002007309121078091D7089091D808281701
:102F9000390761F03093D8082093D7080E94C705FD
:102FA000809120070E94370E0E94B1052091D90818
:102FB0003091DA088091DB089091DC0828173907F6
:102FC00061F03093DC082093DB080E94C7058091F4
:102FD000D9080E94940E0E94B10508950F931F9383
:102FE000CF93DF9380910509909106098D3191056A
:102FF00024F09C012C51304004C02CE130E0281B0F
:10300000390BE0910109F091020960910309709177
:103010000409CB018E0F9F1F8A3691050CF48DC0D9
:10302000AF01461B570B57FF03C0509541955F4FAB
:10303000233031050CF462C0C901880F991F880F35
:10304000991F8536910514F084E690E0909321074E
:10305000809320072091050930910609213131051F
:103060000CF447C01092CD08463051050CF4E2C074
:10307000E617F707FCF488E290E090931E07809330
:103080001D072C3331057CF48CE290E090931E07F1
:1030900080931D072832310534F482E090E090934C
:1030A0001E0780931D074A3051050CF0D9C087E2F6
:1030B00090E0C2C080E290E090931E0780931D07CD
:1030C0002C3331057CF48CE190E090931E078093C3
:1030D0001D072832310534F486E190E090931E07F5
:1030E00080931D074A3051050CF0BAC081E290E090
:1030F000A3C01092CD088CE090E09EC046305105F0
:10310000CCF0CA01880F991F880F991F8536910549
:1031100014F084E690E09093210780932007E6174F
:10312000F7072CF410921E0710921D0799C088E132
:1031300090E082C08FEF90E07FC08D970CF090C040
:103140008091050990910609893191050CF070C0B4
:103150000E94E52860933E0970933F0980934009DF
:10316000909341090CE010E0C4E6D0E00E94E5280D
:1031700020913E0930913F09409140095091410909
:10318000621B730B840B950B645F71408040904011
:1031900008F057C08091DF08853008F052C00E94C7
:1031A0006D1680E090E00E945D0F10931E07009363
:1031B0001D07D0932107C09320070E94A017D6CFE8
:1031C00010921E0710921D0704C0D0931E07C093D3
:1031D0001D070E94A0170E94E52820913E0930910A
:1031E0003F094091400950914109621B730B840BC8
:1031F000950B605971408040904090F58091DF08B8
:10320000853070F50E946D1680E090E00E945D0FA1
:10321000109321070093200720910309309104099E
:103220008091010990910209821793074CF2CDCF4A
:103230008997B4F084E290E090931E0780931D0775
:103240000FC00E94E52860933E0970933F09809368
:1032500040099093410904E610E0C8E1D0E0BBCFFB
:10326000DF91CF911F910F9108956F927F928F926E
:103270009F92AF92BF92CF92DF92EF92FF920F9305
:103280001F93CF93DF9368EC70E080E090E00E94A2
:10329000F328A4E66A2E712C812C912C65C082E063
:1032A0000E947E2900D000D0AA2797FDA095BA2FB2
:1032B000EDB7FEB76182728283829482BC01CD0138
:1032C00020E030E040E050E0FFEFEF2EF3E0FF2E93
:1032D000012D112DE1E0AE2EB12CC12CD12C0E947C
:1032E000C53070932307609322070F900F900F90C3
:1032F0000F90209120073091210726173707A1F161
:1033000081E89BE066E50E94082F409122075091DA
:103310002307662757FD6095762F81E89BE020E024
:1033200030E00E94253081E89BE00E949E2D88239A
:10333000D1F381E89BE00E94B22D8093C608809172
:1033400022076AE04FE520E00E94D72680912207FD
:1033500090912307909321078093200764E670E003
:1033600080E090E00E94F32884E00E94152B0197F2
:1033700009F495CF0E94D2070E94B105C4E6D0E0BF
:1033800000E310E0D0932107C09320070E946D1640
:1033900080E090E00E945D0F80912607803328F046
:1033A00010931E0700931D0704C080931D07109201
:1033B0001E070E94A017E6CFCF93DF938091DD0810
:1033C000882309F41FC18091C9089091CA084F97BA
:1033D0000CF418C10E946D16409103095091040924
:1033E0002091010930910209CA01821B930B97FFBA
:1033F00003C0909581959F4F90934A098093490906
:103400000B970CF4F6C080910509909106092417DA
:1034100035070CF078C08F36910544F45FC00E94E8
:103420008A0C0E946D168EE10E94630E8091F9084D
:103430009091FA08449754F48091DD08882331F084
:103440008091C9089091CA084F974CF70E94E528CF
:103450006093450970934609809347099093480902
:1034600002C00E948A0C0E94E528209145093091F3
:1034700046094091470950914809621B730B840B20
:10348000950B623371058105910558F3B9C00E940F
:103490008A0C0E946D1620910309309104098091D5
:1034A000010990910209281B390B30934A09209396
:1034B000490937FF08C088279927821B930B9093EF
:1034C0004A0980934909D0931E07C0931D0780E0E5
:1034D00090E00E945D0F0E94A01702C0C6E0D0E0FD
:1034E0008091490990914A090B970CF482C0809110
:1034F000DD08882309F47DC08091C9089091CA082D
:103500004F972CF676C08F36910544F460C00E9428
:103510008A0C0E946D1682EE0E94630E8091F9085B
:103520009091FA088D5E9F4F54F08091DD088823BA
:1035300031F08091C9089091CA084F9744F70E94D2
:10354000E528609345097093460980934709909355
:10355000480902C00E948A0C0E94E5282091450972
:10356000309146094091470950914809621B730BFD
:10357000840B950B623371058105910558F340C0AA
:103580000E948A0C0E946D16209103093091040953
:103590008091010990910209281B390B30934A0947
:1035A0002093490937FF08C088279927821B930B6E
:1035B00090934A0980934909D0931E07C0931D0731
:1035C00080E090E00E945D0F0E94A01702C0C2E15F
:1035D000D0E08091490990914A090B9754F080916D
:1035E000DD08882331F08091C9089091CA084F976F
:1035F0003CF68091F9089091FA080996439710F4E7
:103600000E94DF0FDF91CF9108950E94FC09209165
:103610000309309104098091010990910209280F52
:10362000391F2D3231054CF480910509909106091E
:103630004997FCF48CE090E011C025363105CCF0C0
:10364000809105099091060949979CF4909126076D
:10365000892F89518B3038F488E190E090931E07D0
:1036600080931D0706C0953220F010921E0710921D
:103670001D070E94DC1908950F931F93CF93DF93CA
:1036800088E20E94152B8093D00804E610E0C0E584
:10369000D0E00E946D160E94750B80E090E00E94C1
:1036A0005D0F80912607803320F480910F098823D5
:1036B00031F080E00E94F00E0E94EE171FC081E002
:1036C0000E94F00E8091DF08843048F48091260734
:1036D000853028F0843118F40E94490A0FC00E94F6
:1036E000051B8091DF08853028F0D0932107C09317
:1036F000200704C010932107009320070E94A01701
:10370000C8CF0F931F93CF93DF93609101097091FE
:10371000020970930A096093090980910309909145
:10372000040990930C0980930B09209105093091AD
:103730000609233331051CF0E901E29704C0C2E316
:10374000D0E0C21BD30BAC01460F571F4A365105C0
:103750004CF0AB01481B590B57FF84C05095419565
:103760005F4F80C04D3251050CF07AC029313105D0
:103770000CF076C00E94E5286093550970935609B5
:1037800080935709909358090CE010E00E94E528B7
:103790002091550930915609409157095091580987
:1037A000621B730B840B950B6059714080409040F5
:1037B00008F0B8C080912607883108F4B3C080E0D3
:1037C00090E00E945D0F0E94A0170E946D1610935A
:1037D0001E0700931D078091220790912307909365
:1037E000210780932007D2CF10921E0710921D0749
:1037F00004C010931E0700931D070E94E528209126
:103800005509309156094091570950915809621B4A
:10381000730B840B950B685572408040904000F507
:10382000809126078831E0F080E090E00E945D0FF3
:103830000E94A0170E946D16809122079091230785
:103840009093210780932007209103093091040968
:103850008091010990910209821793072CF2C9CF38
:1038600040E050E0C630D10594F1CE01880F991F99
:103870008C0F9D1F8536910514F084E690E090939F
:103880002107809320078091050990910609C3972D
:10389000CCF01092CD084B3051058CF020910309EB
:1038A00030910409809101099091020982179307D0
:1038B0001CF488E290E031C080E290E02EC084E207
:1038C00090E02BC01092CD088CE090E026C04B30E9
:1038D00051050CF1CA01880F991F840F951F853679
:1038E000910514F084E690E09093210780932007DF
:1038F00020910309309104098091010990910209F6
:10390000821793072CF410921E0710921D0717C000
:1039100088E190E002C08FEF90E090931E078093C3
:103920001D070DC00E94E528609355097093560944
:10393000809357099093580908E110E05ECFDF911A
:10394000CF911F910F910895CF92DF92EF92FF9246
:103950000F931F93CF93DF9388E20E94152B8093E0
:10396000D00884E6C82ED12C00E5E02EF12C08E129
:1039700010E0CCE0D0E00E946D160E948A0C80E03E
:1039800090E00E945D0F80912607803330F00E9406
:10399000811B80E00E94F00E46C081E00E94F00E84
:1039A0000E94FC09209103093091040980910109CA
:1039B00090910209280F391F2D3231055CF4809156
:1039C0000509909106094997FCF4D0931E07C0930E
:1039D0001D071AC025363105BCF08091050990916C
:1039E000060949978CF490912607892F89518B30CD
:1039F00028F410931E0700931D0706C0953220F08F
:103A000010921E0710921D070E94DC198091DF089A
:103A1000873028F0F0922107E092200704C0D0926E
:103A20002107C09220070E94A017A5CF6F927F9216
:103A30008F929F92AF92BF92CF92DF92EF92FF92BE
:103A40000F931F93CF93DF938FEF90E09093300904
:103A500080932F090E94E9238CE294E06FE044E018
:103A600021E00FE110E00E94012880E394E063E090
:103A700044E021E00E94012884E394E069E044E00E
:103A800021E00E94012888E394E061E149E021E01F
:103A900000E018EF0E9401288CE394E061E049E027
:103AA00021E00E94012880E494E065E04EEB21E0F3
:103AB0000FE110E00E94012884E494E06FE04EEBF7
:103AC00021E00E9401288AE069E146E929E130E02D
:103AD0000FEF1FEF0E947B258AE06DE246E92DE2A1
:103AE00030E00E947B258AE061E446E921E430E091
:103AF0000E947B258AE069E14AE021E430E00E94EF
:103B00007B2586E969E146E921E430E00E947B25D6
:103B100088E369E148E321E430E00E947B2586E602
:103B200069E146E621E430E00E947B258FEF809337
:103B3000CE0881EE8093CF088093D008C1E0D0E01A
:103B4000A4E66A2E712C812C912CF9C10E946D166D
:103B50008DE00E94152B982F8093C6088091CE0887
:103B60008917E1F09093CE08913039F48CE361E04D
:103B700044E62FE000EE1FEF06C08CE361E044E670
:103B80002FE00FE110E00E944D2688E494E062E40B
:103B900045E020E00FEF1FEF0E944A2489E20E94D7
:103BA000152B982F8093C6088091CF088917F9F0BC
:103BB0009093CF08913071F48EE494E06EE041E090
:103BC00021E000EE17E00E940128D0930E09C09377
:103BD0000D090DC08EE494E06EE041E021E000E0CC
:103BE00018EF0E94012810920E0910920D0988E228
:103BF0000E94152B982F8093C6088091D0088917B2
:103C0000A9F09093D008913041F483E594E061E00D
:103C100041E021E000EE17E007C08AE594E061E0B2
:103C200041E021E006E518EF0E94012880E00E94B3
:103C300029258091190990911A09892B51F0109228
:103C40001A091092190983E762E342E02FEF3FEF70
:103C500005C083E762E342E020EE37E00E94D7250B
:103C60008091170990911809892B51F01092180929
:103C70001092170982E362E342E02FEF3FEF05C0A5
:103C800082E362E342E020EE37E00E94D725809194
:103C90001B0990911C09892B51F010921E0910925A
:103CA0001D0981E96CE342E02FEF3FEF05C081E998
:103CB0006CE342E020EE37E00E94D72580911D0999
:103CC00090911E09892B51F010921E0910921D0926
:103CD00084E16CE342E02FEF3FEF05C084E16CE349
:103CE00042E020EE37E00E94D72582E090E060E1DC
:103CF00070E00E94E40800D000D0AA2797FDA095AC
:103D0000BA2FEDB7FEB76182728283829482BC01C2
:103D1000CD0121E030E040E050E0F6EBEF2EF3E0A3
:103D2000FF2E012D112DE1E0AE2EB12CC12CD12C96
:103D30000E94C5309B01AC013093230720932207DA
:103D40000F900F900F900F90809120079091210776
:103D50006817790751F03093210720932007862FA9
:103D60006AE044E621E00E94D7262091F9083091CC
:103D7000FA0880912F09909130092817390759F0D6
:103D80003093300920932F09C9016CE345E321E00A
:103D900030E00E94D824209101093091020930932B
:103DA000C8082093C70880912709909128092817EF
:103DB000390759F03093280920932709C90166E093
:103DC00043E521E030E00E94D8242091070930919A
:103DD00008093093C8082093C70880912D09909155
:103DE0002E092817390759F030932E0920932D09F1
:103DF000C90162E346E421E030E00E94D82420912A
:103E00000509309106093093C8082093C7088091AE
:103E10002B0990912C092817390759F030932C0958
:103E200020932B09C90162E34AE521E030E00E94BA
:103E3000D82420910309309104093093C8082093B5
:103E4000C7088091290990912A092817390759F044
:103E500030932A0920932909C90165E643E521E049
:103E600030E00E94D82481E090E060E170E00E94A0
:103E7000E408AA2797FDA095BA2FBC01CD010E94A6
:103E8000123220E030E04CE652E40E94C23220E0E0
:103E900030E048EC51E40E9477310E94E4319B010C
:103EA000AC018091310990913209AA2797FDA09524
:103EB000BA2F281739074A075B0759F030933209A0
:103EC00020933109C90160E54FEA21E030E00E940A
:103ED000D82480E090E060E170E00E94E408AA2726
:103EE00097FDA095BA2FBC01CD010E94123220E0AF
:103EF00030E04CE652E40E94C23220E030E048EC70
:103F000051E40E9477310E94E4319B01AC01809121
:103F1000330990913409AA2797FDA095BA2F281745
:103F200039074A075B0759F0309334092093330966
:103F3000C90161E04FEA21E030E00E94D82484E02A
:103F40000E94152B019709F401CE0E94C7058091AC
:103F500020070E94110E84E99BE06AE60E94082F68
:103F600081E061E00E94DA0A882319F184E99BE08C
:103F70000E94B22D8093C6080E94B1050E94E923D9
:103F800080E694E061E04AE021E006E518EF0E9457
:103F9000012884E00E94152B892BD9F30E94E92384
:103FA0008091D008882319F00E94A41C02C00E94AE
:103FB0003C1BDF91CF911F910F91FF90EF90DF900D
:103FC000CF90BF90AF909F908F907F906F9008950B
:103FD0000F931F93CF93DF93CFE0D0E00DC084E722
:103FE00094E061E040E022E00FEF1FEF0E94012823
:103FF000D0932107C093200784E00E94152B892BC2
:1040000071F70E94D2070E94E92384E894E061E0FE
:1040100040E022E00FEF1FEF0E94012886E998E0C0
:1040200061E270E00E94560286E998E06AE974E075
:104030000E94C40286E998E00E94CF028091200786
:104040000E94940E60E375E780E090E00E94F32800
:104050000E94780C86E998E061E270E00E945602C6
:1040600086E998E06CE974E00E94C40286E998E071
:104070000E94CF020E94E9238EE994E061E040E0D3
:1040800022E00E94012860ED77E080E090E00E944D
:10409000F328DF91CF911F910F910895EF92FF9236
:1040A0000F931F938AEB9BE04BE150E060E070E0E0
:1040B00020E030E00E9425308AEB9BE064EB74E066
:1040C0000E94102F8091D408823029F48AEB9BE063
:1040D00068EB74E004C08AEB9BE061ED74E00E9441
:1040E0002F2F8AEB9BE06AEE74E00E94102F8AEB80
:1040F0009BE00E949E2D8823D1F38AEB9BE00E94D7
:10410000B22D8035910509F442C181359105C4F481
:104110008834910509F4B1C08934910544F482349E
:10412000910559F18334910509F0D8C1A3C08934B0
:10413000910509F4EFC08D34910509F0CFC1FAC0A3
:104140008635910509F482C1873591054CF4833594
:10415000910509F41FC18535910509F0BFC13FC123
:104160008836910509F489C08037910509F40FC19B
:104170008336910509F0B2C161C08AEB9BE00E94D1
:10418000182F8AEB9BE06AEE74E00E94102F8AEBF6
:104190009BE06DEE74E00E94102F80E090E060E103
:1041A00070E00E94E408AA2797FDA095BA2FBC01F1
:1041B000CD010E94123220E030E04CE652E40E9431
:1041C000C23220E030E44CE155E40E947731AB018B
:1041D000BC018AEB9BE00E94C1308AEB9BE06BEF55
:1041E00074E00E94102F8AEB9BE06DEF74E00E9458
:1041F000102F81E090E060E170E00E94E408AA27BF
:1042000097FDA095BA2FBC01CD010E94123220E08B
:1042100030E04CE652E40E94C23220E030E44CE14F
:1042200055E40E947731AB01BC018AEB9BE00E9410
:10423000C1308AEB9BE06BEF74E051CF8AEB9BE0DF
:104240000E94182F8AEB9BE06AEE74E00E94102F08
:104250008AEB9BE068E075E00E94102F8091FB08DC
:104260009091FC080E94C606BC018AEB9BE00E946C
:104270000D302FC10E94DF0F2CC18AEB9BE00E9402
:10428000182F8AEB9BE00E94182F8AEB9BE06BE1D2
:1042900075E00E942F2F8AEB9BE061E275E00E949F
:1042A0002F2F8AEB9BE00E94182F8AEB9BE067E29E
:1042B00075E00E942F2F8AEB9BE06FE375E00E9470
:1042C0002F2F8AEB9BE06EE475E00E942F2F8AEB84
:1042D0009BE06BE575E00E942F2F8AEB9BE061E786
:1042E00075E00E942F2F8AEB9BE064E875E00E9446
:1042F0002F2F8AEB9BE066E975E00E942F2F8AEB57
:104300009BE06BEA75E00E942F2F8AEB9BE068EC44
:1043100075E0DDC00E948C098091D408823029F4B8
:104320008AEB9BE060EE75E0DACE8AEB9BE06BEE09
:1043300075E0D5CE8AEB9BE00E949E2D8230D0F3B3
:104340008AEB9BE00E94B22D182F092F8AEB9BE08D
:104350000E94B22DAC0140515240812F902F9C0100
:1043600063E0220F331F6A95E1F7880F991F280F2A
:10437000391F420F531F509337094093360940337A
:10438000510508F0A0C0842F0E94BC0EA2C00E945C
:10439000780C9FC00E94F10C8AEB9BE00E94182FC2
:1043A0008AEB9BE06AEE74E00E94102F8AEB9BE0A0
:1043B0006CEF75E00E94102F8AEB9BE0609126075E
:1043C0000E94002F8AEB9BE069E076E00E94102FAC
:1043D0008AEB9BE06091DF080E943A2F82CE0E9418
:1043E000560D8AEB9BE00E94182F8AEB9BE06AEE49
:1043F00074E00E94102F8AEB9BE065E176E00E945A
:10440000102F60910309709104098AEB9BE00E94D0
:104410000D308AEB9BE062E276E00E94102F609103
:104420000109709102098AEB9BE00E940D308AEB32
:104430009BE062E376E00E94102F60910509709185
:1044400006098AEB9BE00E9415304BCE8AEB9BE07D
:104450000E949E2D8330D0F38AEB9BE00E94B22D08
:104460008C018AEB9BE00E94B22DF82EE92E8AEB9C
:104470009BE00E94B22DAC01405D544184E690E087
:104480009C01029FC001039F900D129F900D11246B
:10449000480F591F8F2D9E2D9C0113E0220F331FB3
:1044A0001A95E1F7880F991F280F391F420F531FE4
:1044B00050933709409336094536510520F4842F2F
:1044C0000E94110E06C08AEB9BE066EF75E00E9429
:1044D0002F2F8AEB9BE00E94182F03CE8AEB9BE0E4
:1044E00060E476E0FCCD0F931F938CE00E94152BC7
:1044F000019711F40E94161D0E94C7050E947107C2
:104500004DC00E9444078093D30840911F07841731
:1045100009F444C04F3F91F0842F805D60E04E5F0E
:1045200021E00FEF1FEF0E94F62340911F074E5F1F
:1045300087E496E061E021E00E9401284091D308E1
:10454000842F805D60E04E5F21E00FEF17E00E9456
:10455000F6234091D3084E5F87E496E061E021E0C6
:104560000E9401288091D30890E06AE245E721E0AB
:1045700030E00E94D8248AE496E060E045E721E03C
:104580000FEF1FEF0E944A248091D30880931F07EA
:1045900062E370E080E090E00E94F32884E00E94F3
:1045A000152B019709F4ADCF0E94D2070E94E92391
:1045B0008091D308843029F1853048F48130C1F0EE
:1045C000813098F08230B9F0833061F517C08730C0
:1045D00009F1883028F48530B9F0863019F517C014
:1045E0008830D9F08930F1F41BC00E942E111AC016
:1045F0000E94371617C00E94BD1414C00E94010FFC
:1046000011C00E94EA160EC00E9425100BC00E9425
:10461000351908C00E94E81F05C00E944E2002C044
:104620000E94A6168FEF80931F071F910F91089588
:104630001F930E9444090E947E2881E00E94522517
:1046400080E00E9429250E94EA0681E89BE040E97B
:1046500050ED63E070E00E94A52C84E99BE040E906
:1046600050ED63E070E00E94A52C8AEB9BE040E0F7
:1046700056E960E070E00E94A52C0E94E5066AE021
:1046800070E080E090E00E94F3280E943A06909348
:10469000FC088093FB086AE070E080E090E04AE567
:1046A0005CE00E9463050E94B10580E361E00E9426
:1046B0008A2A80E361E00E946A2A81E00E940F0951
:1046C0000E945E0980E00E940F0987E260E00E947C
:1046D0006A2A86E260E00E946A2A87E20E94152B1D
:1046E000182F86E20E94152B180F1093D4080E94F1
:1046F000F4071F9108950E941D290E9418230E940B
:104700007322FDCFCF92DF92EF92FF920F931F9310
:104710007C0197EAC92E9BE0D92E4F2D552747FDE6
:104720005A9550E060E070E0C60120E030E00E9461
:104730002530FF2400E010E0C601B801A70120E009
:1047400030E00E9425301F910F91FF90EF90DF9095
:10475000CF90089506C061E070E080E090E00E9494
:10476000F32887EA9BE00E949E2D8823A1F387EA25
:104770009BE00E94B22D863011F0853191F70895AB
:10478000CF92DF92EF92FF920F931F93E82E27EACA
:10479000C22E2BE0D22EC60146E450E060E070E06D
:1047A00020E030E00E942530FF24E7FCF0940F2D3C
:1047B0001F2DC601B801A70120E030E00E9425307E
:1047C0000E94AA231F910F91FF90EF90DF90CF904E
:1047D000089587EA9BE045E450E060E070E020E067
:1047E00030E00E9425300E94AA2308952F923F9224
:1047F0004F925F926F927F928F929F92AF92BF92F1
:10480000CF92DF92EF92FF920F931F93C82E862EC6
:10481000442E822F0E94C02347EA242E4BE0342EE0
:10482000C10164E50E94082FDD24C7FCD094ED2C63
:10483000FD2CC101B701A60120E030E00E94253027
:104840009924AA24BB24C101B501A40120E030E0D1
:104850000E942530552466247724C101B301A201AA
:1048600020E030E00E942530C8010E9482230E948F
:10487000AA231F910F91FF90EF90DF90CF90BF90F0
:10488000AF909F908F907F906F905F904F903F90F0
:104890002F9008954F925F926F927F928F929F9286
:1048A000AF92BF92CF92DF92EF92FF920F931F933E
:1048B000CF93DF93EC01C62E842E422E87EA9BE035
:1048C00063E50E94082FDD24EE24FF2487EA9BE0A5
:1048D000B701A60120E030E00E9425309924AA24E7
:1048E000BB2487EA9BE0B501A40120E030E00E94F0
:1048F0002530552447FC5094652C752C87EA9BE0A5
:10490000B301A20120E030E00E942530C8010E94DE
:10491000822387EA9BE041E050E060E070E020E025
:1049200030E00E94253087EA9BE041E050E060E003
:1049300070E020E030E00E94253000E010E011C07F
:10494000FE01E00FF11F4081552747FD5095652F6F
:10495000752F87EA9BE020E030E00E9425300F5F52
:104960001F4FFE0101900020E9F73197EC1BFD0B72
:104970000E171F0728F387EA9BE040E050E060E055
:1049800070E020E030E00E9425300E94AA23DF91F1
:10499000CF911F910F91FF90EF90DF90CF90BF903C
:1049A000AF909F908F907F906F905F904F90089501
:1049B000EF92FF920F931F93DF93CF9300D000D01D
:1049C00000D0CDB7DEB7FC01F62EE22E9E012F5FA0
:1049D0003F4F65E778E086E0DB010D90BD01D9012E
:1049E0000D929D018150C1F7F7FF09C0F095E19547
:1049F000FF4F8DE289838E010B5F1F4F12C080E253
:104A0000F9CFCF016AE070E00E946433805DD80185
:104A10008C93CF016AE070E00E946433FB01015087
:104A200010401E161F066CF3CE0101966F2D2E2D21
:104A30000FEF17E00E944A2426960FB6F894DEBFC7
:104A40000FBECDBFCF91DF911F910F91FF90EF90DF
:104A50000895CF92DF92EF92FF920F931F93E82E6B
:104A600057EAC52E5BE0D52EC60140E750E060E076
:104A700070E020E030E00E942530FF24E7FCF09455
:104A80000F2D1F2DC601B801A70120E030E00E94C4
:104A900025300E94AA231F910F91FF90EF90DF9085
:104AA000CF900895CF92DF92EF92FF920F931F93D2
:104AB000E82E67EAC62E6BE0D62EC6014FE450E022
:104AC00060E070E020E030E00E942530FF24E7FC49
:104AD000F0940F2D1F2DC601B801A70120E030E092
:104AE0000E9425300E94AA231F910F91FF90EF9002
:104AF000DF90CF9008952F923F924F925F926F92E6
:104B00007F928F929F92AF92BF92CF92DF92EF925D
:104B1000FF920F931F93CF93DF93C82E862E442EC0
:104B2000E90177EA272E7BE0372EC1016CE40E9471
:104B3000082FDD24EE24FF24C101B701A60120E0E7
:104B400030E00E9425309924AA24BB24C101B5017C
:104B5000A40120E030E00E9425305524662477240B
:104B6000C101B301A20120E030E00E942530AE0176
:104B700060E070E0C10120E030E00E942530C80113
:104B80000E9482230E94AA23DF91CF911F910F914F
:104B9000FF90EF90DF90CF90BF90AF909F908F905D
:104BA0007F906F905F904F903F902F9008952F923D
:104BB0003F924F925F926F927F928F929F92AF92AD
:104BC000BF92CF92DF92EF92FF920F931F93E82E46
:104BD000A62E642E1901E7EA4E2EEBE05E2EC201EE
:104BE00063E40E94082FFF2400E010E0C201B80136
:104BF000A70120E030E00E942530BB24CC24DD2436
:104C0000C201B601A50120E030E00E9425307724E2
:104C100088249924C201B401A30120E030E00E945D
:104C20002530C1010E9482230E94AA231F910F9167
:104C3000FF90EF90DF90CF90BF90AF909F908F90BC
:104C40007F906F905F904F903F902F900895CF92FC
:104C5000DF92EF92FF920F931F93F82EE62ED42E41
:104C6000C22E80E00E942925FF2051F48E2D6D2D4B
:104C70004C2D20E030E00E94D72581E00E942925BC
:104C80008E2D6D2D4C2D98010E94D7251F910F91CF
:104C9000FF90EF90DF90CF9008952F923F924F9228
:104CA0005F926F927F928F929F92AF92BF92CF92BC
:104CB000DF92EF92FF920F931F93DF93CF930F92A8
:104CC000CDB7DEB7C82E862E442E2983F7EA2F2EC5
:104CD000FBE03F2EC10162E70E94082FDD24EE2495
:104CE000FF24C101B701A60120E030E00E94253079
:104CF0009924AA24BB24C101B501A40120E030E01D
:104D00000E942530552466247724C101B301A201F5
:104D100020E030E00E9425308981482F50E060E09B
:104D200070E0C10120E030E00E942530C8010E94FF
:104D300082230E94AA230F90CF91DF911F910F91A0
:104D4000FF90EF90DF90CF90BF90AF909F908F90AB
:104D50007F906F905F904F903F902F900895CF92EB
:104D6000DF92EF92FF920F931F93C82EE62EF42E40
:104D700080E00E942925A3E0DA2EDE0C6F2D645618
:104D80008E2D4D2D2F2D00E010E00E944D266F2D11
:104D90006C198E2D4D2D2F2D0FEF1FEF0E944D26DC
:104DA0001F910F91FF90EF90DF90CF900895BF92E9
:104DB000CF92DF92EF92FF920F931F93DF93CF93E7
:104DC00000D000D000D0CDB7DEB7C82ED62EB42E7E
:104DD00084E68C1518F414E6C12E03C084E6C816C8
:104DE00011F481E301C080E2898389E08C1518F019
:104DF00080E28A8308C08C2D6AE00E9444330E94BE
:104E00004433905D9A838C2D6AE00E944433905D18
:104E10009B8385E28C831D82222371F481E00E94B2
:104E200029254D2D47592B2D2C5F8D2D8D5F6B2DF9
:104E30000FEF1FEF0E944D2680E00E9429259D2D37
:104E40009C5FFB2CF394B3E0EB2EEB0C88E6D80EC2
:104E5000892F6F2D4D2D2E2D00E010E09E830E9496
:104E60004D269E81892F6F2D9C0D492F2E2D0FEFE2
:104E70001FEF0E944D2686E0D80ECE0101966D2DC3
:104E80004B2D21E00FEF17E00E944A2426960FB623
:104E9000F894DEBF0FBECDBFCF91DF911F910F9170
:104EA000FF90EF90DF90CF90BF9008956F927F9228
:104EB0008F929F92AF92BF92CF92DF92EF92FF922A
:104EC0000F931F93DF93CF9300D000D000D0CDB7C6
:104ED000DEB73C014B01A42EB22E6801DE01119613
:104EE000EBE7F8E086E001900D928150E1F7EE20CB
:104EF000E9F50E94292594E0F92EFB0C4A2D485F24
:104F00008A2D8C5F6B2D2F2D86010E944D264A2DF8
:104F10004C5D8A2D805E6B2D2F2D0E944D2688E2E0
:104F2000F82EFA0C6B2D6B5F2B2D285F8A2D4F2DE1
:104F30000E944D266B2D675F4A2D4A5D2B2D285E02
:104F40008A2D8E5F0E944D266B2D675E2B2D245E71
:104F50008A2D4F2D0E944D266A2D6A5F4B2D435F8F
:104F6000C30120E00FEF1FEF0E944A248114910437
:104F700039F004E010E07E010894E11CF11C1AC035
:104F800080E38A838C838D831CC00230110581F0FD
:104F9000F701E00FF11FC4016AE070E00E94643382
:104FA000805D8083C4016AE070E00E9464334B013D
:104FB000015010401814190424F48FEF0F3F180704
:104FC00021F781E2B80ECE0101966A2D4B2D20E02B
:104FD0000FEF1FEF0E944A2426960FB6F894DEBF0B
:104FE0000FBECDBFCF91DF911F910F91FF90EF903A
:104FF000DF90CF90BF90AF909F908F907F906F90F9
:1050000008954F925F926F927F928F929F92AF928C
:10501000BF92CF92DF92EF92FF920F931F93CF93A5
:10502000DF93EC01C62E842E422E87EA9BE043E7F5
:1050300050E060E070E020E030E00E942530DD24A8
:10504000EE24FF2487EA9BE0B701A60120E030E0D0
:105050000E9425309924AA24BB2487EA9BE0B5014D
:10506000A40120E030E00E942530552466247724F6
:1050700087EA9BE0B301A20120E030E00E942530E6
:10508000C8010E94822300E010E011C0FE01E00F81
:10509000F11F4081552747FD5095652F752F87EAF1
:1050A0009BE020E030E00E9425300F5F1F4FFE01A3
:1050B00001900020E9F73197EC1BFD0B0E171F073D
:1050C00028F387EA9BE040E050E060E070E020E0F9
:1050D00030E00E9425300E94AA23DF91CF911F91DA
:1050E0000F91FF90EF90DF90CF90BF90AF909F9087
:1050F0008F907F906F905F904F9008950F931F93C4
:1051000007EA1BE0C80140E052EC61E070E00E9459
:10511000A52C68EE73E080E090E00E94F328C801BF
:1051200045E550E060E070E020E030E00E9425308E
:105130000E94AA231F910F9108951F920F920FB6FC
:105140000F9211242F933F938F939F93AF93BF930D
:1051500080916C0990916D09A0916E09B0916F09D1
:10516000309170090196A11DB11D232F2D5F2D37A0
:1051700020F02D570196A11DB11D20937009809339
:105180006C0990936D09A0936E09B0936F0980919B
:10519000680990916909A0916A09B0916B0901961B
:1051A000A11DB11D8093680990936909A0936A09B4
:1051B000B0936B09BF91AF919F918F913F912F91C8
:1051C0000F900FBE0F901F9018958FB7F8942091F5
:1051D0006C0930916D0940916E0950916F098FBF34
:1051E000B901CA010895EF92FF920F931F937B01BB
:1051F0008C018FB7F89440916C0950916D096091C2
:105200006E0970916F098FBF2FB7F89480916C0968
:1052100090916D09A0916E09B0916F092FBF841B09
:10522000950BA60BB70BE816F9060A071B0760F7E4
:105230001F910F91FF90EF900895789484B582604C
:1052400084BD84B5816084BD85B5826085BD85B52A
:10525000816085BDEEE6F0E0808181608083E1E8D9
:10526000F0E0808182608083808181608083E0E8DB
:10527000F0E0808181608083E1EBF0E080818460F8
:105280008083E0EBF0E0808181608083E1E9F0E001
:10529000808182608083808181608083E1EAF0E0A8
:1052A000808182608083808181608083E1E2F1E09F
:1052B000808182608083808181608083E0E9F0E08A
:1052C000808181608083E0EAF0E08081816080837A
:1052D000E0E2F1E0808181608083EAE7F0E08081B4
:1052E000846080838081826080838081816080830C
:1052F0008081806880831092C1000895382F3F70AC
:1053000020915A082295220F220F207C232B2093D4
:105310007C0020917B0086958695869590E0817033
:10532000907033E0880F991F3A95E1F7277F282B7B
:1053300020937B0080917A00806480937A00809132
:105340007A0086FDFCCF2091780040917900942F5F
:1053500080E030E0282B392BC90108951F93CF93AB
:10536000DF93182FEB0161E00E946A2AE12FF0E041
:10537000E254FE4F8491833051F480918000806824
:1053800080938000D0938900C09388009FC08430B0
:1053900051F480918000806280938000D0938B00D4
:1053A000C0938A0093C0813041F4209709F487C0EC
:1053B00084B5806884BDC7BD89C0823041F4209720
:1053C00009F47DC084B5806284BDC8BD7FC08630CD
:1053D00041F48091B00080688093B000C093B30026
:1053E00075C0873041F48091B00080628093B00036
:1053F000C093B4006BC0883051F4809190008068F5
:1054000080939000D0939900C09398005FC089303A
:1054100051F480919000806280939000D0939B0023
:10542000C0939A0053C08A3051F4809190008860F4
:1054300080939000D0939D00C0939C0047C08B3018
:1054400051F48091A00080688093A000D093A900BF
:10545000C093A8003BC084918C3051F48091A0008F
:1054600080628093A000D093AB00C093AA002EC0AE
:105470008D3051F48091A00088608093A000D0937B
:10548000AD00C093AC0022C08E3051F48091200159
:10549000806880932001D0932901C093280116C011
:1054A0008F3051F480912001806280932001D0934D
:1054B0002B01C0932A010AC0C038D1051CF4812FEA
:1054C00060E002C0812F61E00E948A2ADF91CF91C3
:1054D0001F910895282F30E0C90188589E4FFC0184
:1054E00094912E5C3E4FF9018491882391F0E82F2E
:1054F000F0E0EE0FFF1FEC51FF4FA591B491662332
:1055000029F48C91909589238C9308958C91892B03
:105510008C930895482F50E0CA0182549E4FFC019D
:105520002491CA0188589E4FFC0194914E5C5E4FB5
:10553000FA013491332309F477C0222309F462C0BD
:10554000233021F4809180008F7705C0243031F41E
:10555000809180008F7D8093800054C0213019F4A9
:1055600084B58F7704C0223021F484B58F7D84BD4B
:1055700049C0263021F48091B0008F7705C02730D4
:1055800031F48091B0008F7D8093B0003BC0283013
:1055900021F4809190008F7705C0293031F48091FB
:1055A00090008F7D809390002DC02A3021F480914F
:1055B0009000877FF7CF2B3021F48091A0008F7768
:1055C0000BC02C3021F48091A0008F7D05C02D30C0
:1055D00031F48091A000877F8093A00013C02E300B
:1055E00021F4809120018F770BC02F3021F480911E
:1055F00020018F7D05C0203129F480912001877F13
:1056000080932001E32FF0E0EE0FFF1FE250FF4FE9
:10561000A591B491662329F48C91909589238C935C
:1056200008958C91892B8C930895682F70E0CB019D
:1056300082549E4FFC012491CB0188589E4FFC015F
:1056400044916E5C7E4FFB019491992319F420E004
:1056500030E075C0222309F462C0233021F4809128
:1056600080008F7705C0243031F4809180008F7DD9
:105670008093800054C0213019F484B58F7704C022
:10568000223021F484B58F7D84BD49C0263021F4B9
:105690008091B0008F7705C0273031F48091B00041
:1056A0008F7D8093B0003BC0283021F48091900022
:1056B0008F7705C0293031F4809190008F7D8093E1
:1056C00090002DC02A3021F480919000877FF7CF81
:1056D0002B3021F48091A0008F770BC02C3021F467
:1056E0008091A0008F7D05C02D3031F48091A00005
:1056F000877F8093A00013C02E3021F48091200179
:105700008F770BC02F3021F4809120018F7D05C051
:10571000203129F480912001877F80932001892FF7
:1057200090E0880F991F885E9E4FFC01A591B4916F
:105730008C9120E030E0842311F021E030E0C901B9
:1057400008951F920F920FB60F920BB60F9211246D
:105750002F933F934F935F936F937F938F939F9379
:10576000AF93BF93EF93FF934091C600E091F1098F
:10577000F091F209CF01019660E870E00E94643375
:105780009C018091F3099091F4092817390739F0A9
:10579000EF58F64F40833093F2092093F109FF91BF
:1057A000EF91BF91AF919F918F917F916F915F9199
:1057B0004F913F912F910F900BBE0F900FBE0F9006
:1057C0001F9018951F920F920FB60F920BB60F9263
:1057D00011242F933F934F935F936F937F938F93F6
:1057E0009F93AF93BF93EF93FF934091CE00E091CF
:1057F000750AF091760ACF01019660E870E00E9488
:1058000064339C018091770A9091780A28173907B0
:1058100039F0EB50F64F40833093760A2093750AA7
:10582000FF91EF91BF91AF919F918F917F916F9178
:105830005F914F913F912F910F900BBE0F900FBE34
:105840000F901F9018951F920F920FB60F920BB6E4
:105850000F9211242F933F934F935F936F937F93F6
:105860008F939F93AF93BF93EF93FF934091D60095
:10587000E091F90AF091FA0ACF01019660E870E030
:105880000E9464339C018091FB0A9091FC0A2817C6
:10589000390739F0E758F54F40833093FA0A2093DF
:1058A000F90AFF91EF91BF91AF919F918F917F91F5
:1058B0006F915F914F913F912F910F900BBE0F9081
:1058C0000FBE0F901F9018951F920F920FB60F9258
:1058D0000BB60F9211242F933F934F935F936F93C7
:1058E0007F938F939F93AF93BF93EF93FF934091D9
:1058F0003601E0917D0BF0917E0BCF01019660E8BF
:1059000070E00E9464339C0180917F0B9091800B2A
:105910002817390739F0E350F54F408330937E0B59
:1059200020937D0BFF91EF91BF91AF919F918F914C
:105930007F916F915F914F913F912F910F900BBE8F
:105940000F900FBE0F901F9018955F926F927F92ED
:105950008F929F92AF92BF92CF92DF92EF92FF927F
:105960000F931F93CF93DF93EC013A014B01413426
:1059700082E458078FE0680780E078070CF07FC06A
:1059800060E874E88EE190E0A40193010E949933ED
:105990002150304040405040CA01B90122E030E07F
:1059A00040E050E00E94993359016A01A601950137
:1059B000209530954095509594E0220F331F441F59
:1059C000551F9A95D1F760E074E284EF90E00E9451
:1059D0009933CA01B9012FEF30E040E050E00E9456
:1059E0002533A40193010E949933C90181509F4F2F
:1059F000181619061CF4522E5A9403C055245394B9
:105A0000521A60E079E08DE390E0A40193010E94D6
:105A100099332150304040405040CA01B90122E042
:105A200030E040E050E00E94993320953095409559
:105A3000509583E0220F331F441F551F8A95D1F7DD
:105A400060E074E284EF90E00E949933CA01B901EA
:105A50002FEF30E040E050E00E942533A401930195
:105A60000E949933C90181509F4F181619061CF4E2
:105A7000822F815002C081E0821B851500F5E885E8
:105A8000F98581E090E00A8802C0880F991F0A9486
:105A9000E2F7808360E079E08DE390E0A401930178
:105AA0000E9499332150304040405040CA01B90112
:105AB00022E030E040E050E00E94993304C0E885E5
:105AC000F98510829501EC81FD813083EE81FF81A3
:105AD0002083EA85FB85208141E050E0CA010E84E5
